{
  "contractName": "TokenFarm",
  "abi": [
    {
      "inputs": [
        {
          "internalType": "address",
          "name": "_dappTokenAddress",
          "type": "address"
        }
      ],
      "stateMutability": "nonpayable",
      "type": "constructor"
    },
    {
      "anonymous": false,
      "inputs": [
        {
          "indexed": true,
          "internalType": "bytes32",
          "name": "id",
          "type": "bytes32"
        }
      ],
      "name": "ChainlinkCancelled",
      "type": "event"
    },
    {
      "anonymous": false,
      "inputs": [
        {
          "indexed": true,
          "internalType": "bytes32",
          "name": "id",
          "type": "bytes32"
        }
      ],
      "name": "ChainlinkFulfilled",
      "type": "event"
    },
    {
      "anonymous": false,
      "inputs": [
        {
          "indexed": true,
          "internalType": "bytes32",
          "name": "id",
          "type": "bytes32"
        }
      ],
      "name": "ChainlinkRequested",
      "type": "event"
    },
    {
      "anonymous": false,
      "inputs": [
        {
          "indexed": true,
          "internalType": "address",
          "name": "previousOwner",
          "type": "address"
        },
        {
          "indexed": true,
          "internalType": "address",
          "name": "newOwner",
          "type": "address"
        }
      ],
      "name": "OwnershipTransferred",
      "type": "event"
    },
    {
      "anonymous": false,
      "inputs": [
        {
          "indexed": true,
          "internalType": "address",
          "name": "user",
          "type": "address"
        },
        {
          "indexed": false,
          "internalType": "uint256",
          "name": "timestamp",
          "type": "uint256"
        },
        {
          "indexed": false,
          "internalType": "uint256",
          "name": "amount",
          "type": "uint256"
        }
      ],
      "name": "Staked",
      "type": "event"
    },
    {
      "anonymous": false,
      "inputs": [
        {
          "indexed": true,
          "internalType": "address",
          "name": "user",
          "type": "address"
        },
        {
          "indexed": false,
          "internalType": "uint256",
          "name": "timestamp",
          "type": "uint256"
        },
        {
          "indexed": false,
          "internalType": "uint256",
          "name": "amount",
          "type": "uint256"
        },
        {
          "indexed": false,
          "internalType": "uint256",
          "name": "rewardAmount",
          "type": "uint256"
        }
      ],
      "name": "Unstaked",
      "type": "event"
    },
    {
      "inputs": [],
      "name": "allowedToken",
      "outputs": [
        {
          "internalType": "address",
          "name": "",
          "type": "address"
        }
      ],
      "stateMutability": "view",
      "type": "function"
    },
    {
      "inputs": [],
      "name": "dappToken",
      "outputs": [
        {
          "internalType": "contract IERC20",
          "name": "",
          "type": "address"
        }
      ],
      "stateMutability": "view",
      "type": "function"
    },
    {
      "inputs": [],
      "name": "owner",
      "outputs": [
        {
          "internalType": "address",
          "name": "",
          "type": "address"
        }
      ],
      "stateMutability": "view",
      "type": "function"
    },
    {
      "inputs": [],
      "name": "priceFeedAddress",
      "outputs": [
        {
          "internalType": "address",
          "name": "",
          "type": "address"
        }
      ],
      "stateMutability": "view",
      "type": "function"
    },
    {
      "inputs": [],
      "name": "renounceOwnership",
      "outputs": [],
      "stateMutability": "nonpayable",
      "type": "function"
    },
    {
      "inputs": [
        {
          "internalType": "address",
          "name": "",
          "type": "address"
        }
      ],
      "name": "rewardBalance",
      "outputs": [
        {
          "internalType": "uint256",
          "name": "",
          "type": "uint256"
        }
      ],
      "stateMutability": "view",
      "type": "function"
    },
    {
      "inputs": [
        {
          "internalType": "uint256",
          "name": "",
          "type": "uint256"
        }
      ],
      "name": "stakers",
      "outputs": [
        {
          "internalType": "address",
          "name": "",
          "type": "address"
        }
      ],
      "stateMutability": "view",
      "type": "function"
    },
    {
      "inputs": [
        {
          "internalType": "address",
          "name": "",
          "type": "address"
        }
      ],
      "name": "stakingBalance",
      "outputs": [
        {
          "internalType": "uint256",
          "name": "",
          "type": "uint256"
        }
      ],
      "stateMutability": "view",
      "type": "function"
    },
    {
      "inputs": [
        {
          "internalType": "address",
          "name": "",
          "type": "address"
        }
      ],
      "name": "stakingStartTime",
      "outputs": [
        {
          "internalType": "uint256",
          "name": "",
          "type": "uint256"
        }
      ],
      "stateMutability": "view",
      "type": "function"
    },
    {
      "inputs": [
        {
          "internalType": "address",
          "name": "newOwner",
          "type": "address"
        }
      ],
      "name": "transferOwnership",
      "outputs": [],
      "stateMutability": "nonpayable",
      "type": "function"
    },
    {
      "inputs": [
        {
          "internalType": "uint256",
          "name": "amount",
          "type": "uint256"
        },
        {
          "internalType": "address",
          "name": "token",
          "type": "address"
        }
      ],
      "name": "stakeTokens",
      "outputs": [],
      "stateMutability": "nonpayable",
      "type": "function"
    },
    {
      "inputs": [],
      "name": "unstakeTokens",
      "outputs": [],
      "stateMutability": "nonpayable",
      "type": "function"
    },
    {
      "inputs": [
        {
          "internalType": "address",
          "name": "user",
          "type": "address"
        }
      ],
      "name": "getStakingBalanceValue",
      "outputs": [
        {
          "internalType": "uint256",
          "name": "",
          "type": "uint256"
        }
      ],
      "stateMutability": "view",
      "type": "function"
    },
    {
      "inputs": [],
      "name": "getTokenDollarValue",
      "outputs": [
        {
          "internalType": "uint256",
          "name": "",
          "type": "uint256"
        },
        {
          "internalType": "uint256",
          "name": "",
          "type": "uint256"
        }
      ],
      "stateMutability": "view",
      "type": "function"
    },
    {
      "inputs": [
        {
          "internalType": "address",
          "name": "token",
          "type": "address"
        }
      ],
      "name": "setAllowedToken",
      "outputs": [],
      "stateMutability": "nonpayable",
      "type": "function"
    },
    {
      "inputs": [
        {
          "internalType": "address",
          "name": "priceFeed",
          "type": "address"
        }
      ],
      "name": "setPriceFeedAddress",
      "outputs": [],
      "stateMutability": "nonpayable",
      "type": "function"
    }
  ],
  "bytecode": "0x608060405260016004553480156200001657600080fd5b5060405162001faf38038062001faf83398181016040528101906200003c9190620001dc565b6200005c62000050620000a460201b60201c565b620000ac60201b60201c565b80600760006101000a81548173ffffffffffffffffffffffffffffffffffffffff021916908373ffffffffffffffffffffffffffffffffffffffff160217905550506200020e565b600033905090565b6000600660009054906101000a900473ffffffffffffffffffffffffffffffffffffffff16905081600660006101000a81548173ffffffffffffffffffffffffffffffffffffffff021916908373ffffffffffffffffffffffffffffffffffffffff1602179055508173ffffffffffffffffffffffffffffffffffffffff168173ffffffffffffffffffffffffffffffffffffffff167f8be0079c531659141344cd1fd0a4f28419497f9722a3daafe3b4186f6b6457e060405160405180910390a35050565b600080fd5b600073ffffffffffffffffffffffffffffffffffffffff82169050919050565b6000620001a48262000177565b9050919050565b620001b68162000197565b8114620001c257600080fd5b50565b600081519050620001d681620001ab565b92915050565b600060208284031215620001f557620001f462000172565b5b60006200020584828501620001c5565b91505092915050565b611d91806200021e6000396000f3fe608060405234801561001057600080fd5b50600436106100ff5760003560e01c80638da5cb5b11610097578063d123273011610066578063d123273014610275578063e0abca0b146102a5578063f2fde38b146102c3578063fd5e6dd1146102df576100ff565b80638da5cb5b14610201578063a5ce413b1461021f578063b3ef4cd814610229578063b68490bc14610259576100ff565b806367b40cf7116100d357806367b40cf71461018a5780636db18093146101ba578063715018a6146101d957806385fa292f146101e3576100ff565b8062cf5db4146101045780630bea440d1461012057806345bc78ab1461013c5780635eb186f81461016c575b600080fd5b61011e60048036038101906101199190611362565b61030f565b005b61013a600480360381019061013591906113c5565b6103cf565b005b61015660048036038101906101519190611362565b6106f3565b6040516101639190611414565b60405180910390f35b61017461070b565b604051610181919061148e565b60405180910390f35b6101a4600480360381019061019f9190611362565b610731565b6040516101b19190611414565b60405180910390f35b6101c2610749565b6040516101d09291906114a9565b60405180910390f35b6101e161086d565b005b6101eb6108f5565b6040516101f891906114e1565b60405180910390f35b61020961091b565b60405161021691906114e1565b60405180910390f35b610227610945565b005b610243600480360381019061023e9190611362565b610dab565b6040516102509190611414565b60405180910390f35b610273600480360381019061026e9190611362565b610e78565b005b61028f600480360381019061028a9190611362565b610f38565b60405161029c9190611414565b60405180910390f35b6102ad610f50565b6040516102ba91906114e1565b60405180910390f35b6102dd60048036038101906102d89190611362565b610f76565b005b6102f960048036038101906102f491906114fc565b61106e565b60405161030691906114e1565b60405180910390f35b6103176110ad565b73ffffffffffffffffffffffffffffffffffffffff1661033561091b565b73ffffffffffffffffffffffffffffffffffffffff161461038b576040517f08c379a000000000000000000000000000000000000000000000000000000000815260040161038290611586565b60405180910390fd5b80600960006101000a81548173ffffffffffffffffffffffffffffffffffffffff021916908373ffffffffffffffffffffffffffffffffffffffff16021790555050565b60008211610412576040517f08c379a0000000000000000000000000000000000000000000000000000000008152600401610409906115f2565b60405180910390fd5b6000600c60003373ffffffffffffffffffffffffffffffffffffffff1673ffffffffffffffffffffffffffffffffffffffff1681526020019081526020016000205414610494576040517f08c379a000000000000000000000000000000000000000000000000000000000815260040161048b90611684565b60405180910390fd5b8073ffffffffffffffffffffffffffffffffffffffff166323b872dd3330856040518463ffffffff1660e01b81526004016104d1939291906116a4565b6020604051808303816000875af11580156104f0573d6000803e3d6000fd5b505050506040513d601f19601f820116820180604052508101906105149190611713565b5081600c60003373ffffffffffffffffffffffffffffffffffffffff1673ffffffffffffffffffffffffffffffffffffffff16815260200190815260200160002054610560919061176f565b600c60003373ffffffffffffffffffffffffffffffffffffffff1673ffffffffffffffffffffffffffffffffffffffff1681526020019081526020016000208190555042600d60003373ffffffffffffffffffffffffffffffffffffffff1673ffffffffffffffffffffffffffffffffffffffff16815260200190815260200160002081905550600a339080600181540180825580915050600190039060005260206000200160009091909190916101000a81548173ffffffffffffffffffffffffffffffffffffffff021916908373ffffffffffffffffffffffffffffffffffffffff1602179055506001600a8054905061065c91906117c5565b600b60003373ffffffffffffffffffffffffffffffffffffffff1673ffffffffffffffffffffffffffffffffffffffff168152602001908152602001600020819055503373ffffffffffffffffffffffffffffffffffffffff167f1449c6dd7851abc30abf37f57715f492010519147cc2652fbc38202c18a6ee9083426040516106e79291906114a9565b60405180910390a25050565b600c6020528060005260406000206000915090505481565b600760009054906101000a900473ffffffffffffffffffffffffffffffffffffffff1681565b600e6020528060005260406000206000915090505481565b6000806000600960009054906101000a900473ffffffffffffffffffffffffffffffffffffffff16905060008173ffffffffffffffffffffffffffffffffffffffff1663feaf968c6040518163ffffffff1660e01b815260040160a060405180830381865afa1580156107c0573d6000803e3d6000fd5b505050506040513d601f19601f820116820180604052508101906107e49190611886565b50505091505060008273ffffffffffffffffffffffffffffffffffffffff1663313ce5676040518163ffffffff1660e01b8152600401602060405180830381865afa158015610837573d6000803e3d6000fd5b505050506040513d601f19601f8201168201806040525081019061085b919061193a565b60ff1690508181945094505050509091565b6108756110ad565b73ffffffffffffffffffffffffffffffffffffffff1661089361091b565b73ffffffffffffffffffffffffffffffffffffffff16146108e9576040517f08c379a00000000000000000000000000000000000000000000000000000000081526004016108e090611586565b60405180910390fd5b6108f360006110b5565b565b600860009054906101000a900473ffffffffffffffffffffffffffffffffffffffff1681565b6000600660009054906101000a900473ffffffffffffffffffffffffffffffffffffffff16905090565b6000600c60003373ffffffffffffffffffffffffffffffffffffffff1673ffffffffffffffffffffffffffffffffffffffff16815260200190815260200160002054116109c7576040517f08c379a00000000000000000000000000000000000000000000000000000000081526004016109be906119b3565b60405180910390fd5b60006109d23361117b565b9050600760009054906101000a900473ffffffffffffffffffffffffffffffffffffffff1673ffffffffffffffffffffffffffffffffffffffff1663a9059cbb33836040518363ffffffff1660e01b8152600401610a319291906119d3565b6020604051808303816000875af1158015610a50573d6000803e3d6000fd5b505050506040513d601f19601f82011682018060405250810190610a749190611713565b50600860009054906101000a900473ffffffffffffffffffffffffffffffffffffffff1673ffffffffffffffffffffffffffffffffffffffff1663a9059cbb33600c60003373ffffffffffffffffffffffffffffffffffffffff1673ffffffffffffffffffffffffffffffffffffffff168152602001908152602001600020546040518363ffffffff1660e01b8152600401610b119291906119d3565b6020604051808303816000875af1158015610b30573d6000803e3d6000fd5b505050506040513d601f19601f82011682018060405250810190610b549190611713565b506000600c60003373ffffffffffffffffffffffffffffffffffffffff1673ffffffffffffffffffffffffffffffffffffffff168152602001908152602001600020819055506000600d60003373ffffffffffffffffffffffffffffffffffffffff1673ffffffffffffffffffffffffffffffffffffffff168152602001908152602001600020819055506000600b60003373ffffffffffffffffffffffffffffffffffffffff1673ffffffffffffffffffffffffffffffffffffffff168152602001908152602001600020549050600a6001600a80549050610c3791906117c5565b81548110610c4857610c476119fc565b5b9060005260206000200160009054906101000a900473ffffffffffffffffffffffffffffffffffffffff16600a8281548110610c8757610c866119fc565b5b9060005260206000200160006101000a81548173ffffffffffffffffffffffffffffffffffffffff021916908373ffffffffffffffffffffffffffffffffffffffff160217905550600a805480610ce157610ce0611a2b565b5b6001900381819060005260206000200160006101000a81549073ffffffffffffffffffffffffffffffffffffffff021916905590553373ffffffffffffffffffffffffffffffffffffffff167f204fccf0d92ed8d48f204adb39b2e81e92bad0dedb93f5716ca9478cfb57de0042600c60003373ffffffffffffffffffffffffffffffffffffffff1673ffffffffffffffffffffffffffffffffffffffff1681526020019081526020016000205485604051610d9f93929190611a5a565b60405180910390a25050565b600080600c60008473ffffffffffffffffffffffffffffffffffffffff1673ffffffffffffffffffffffffffffffffffffffff168152602001908152602001600020541415610dfd5760009050610e73565b600080610e08610749565b9150915080600a610e199190611bc4565b82600c60008773ffffffffffffffffffffffffffffffffffffffff1673ffffffffffffffffffffffffffffffffffffffff16815260200190815260200160002054610e649190611c0f565b610e6e9190611c98565b925050505b919050565b610e806110ad565b73ffffffffffffffffffffffffffffffffffffffff16610e9e61091b565b73ffffffffffffffffffffffffffffffffffffffff1614610ef4576040517f08c379a0000000000000000000000000000000000000000000000000000000008152600401610eeb90611586565b60405180910390fd5b80600860006101000a81548173ffffffffffffffffffffffffffffffffffffffff021916908373ffffffffffffffffffffffffffffffffffffffff16021790555050565b600d6020528060005260406000206000915090505481565b600960009054906101000a900473ffffffffffffffffffffffffffffffffffffffff1681565b610f7e6110ad565b73ffffffffffffffffffffffffffffffffffffffff16610f9c61091b565b73ffffffffffffffffffffffffffffffffffffffff1614610ff2576040517f08c379a0000000000000000000000000000000000000000000000000000000008152600401610fe990611586565b60405180910390fd5b600073ffffffffffffffffffffffffffffffffffffffff168173ffffffffffffffffffffffffffffffffffffffff161415611062576040517f08c379a000000000000000000000000000000000000000000000000000000000815260040161105990611d3b565b60405180910390fd5b61106b816110b5565b50565b600a818154811061107e57600080fd5b906000526020600020016000915054906101000a900473ffffffffffffffffffffffffffffffffffffffff1681565b600033905090565b6000600660009054906101000a900473ffffffffffffffffffffffffffffffffffffffff16905081600660006101000a81548173ffffffffffffffffffffffffffffffffffffffff021916908373ffffffffffffffffffffffffffffffffffffffff1602179055508173ffffffffffffffffffffffffffffffffffffffff168173ffffffffffffffffffffffffffffffffffffffff167f8be0079c531659141344cd1fd0a4f28419497f9722a3daafe3b4186f6b6457e060405160405180910390a35050565b600080600c60008473ffffffffffffffffffffffffffffffffffffffff1673ffffffffffffffffffffffffffffffffffffffff1681526020019081526020016000205414156111cd5760009050611227565b60006111d88361122c565b90506000806111e5610749565b91509150600081600a6111f89190611bc4565b83856112049190611c0f565b61120e9190611c98565b9050606460ff16816112209190611c98565b9450505050505b919050565b600080600c60008473ffffffffffffffffffffffffffffffffffffffff1673ffffffffffffffffffffffffffffffffffffffff1681526020019081526020016000205490506000600d60008573ffffffffffffffffffffffffffffffffffffffff1673ffffffffffffffffffffffffffffffffffffffff168152602001908152602001600020549050600081426112c391906117c5565b9050600083610e10836112d69190611c98565b6112e09190611c0f565b90506103e861ffff16816112f49190611c98565b945050505050919050565b600080fd5b600073ffffffffffffffffffffffffffffffffffffffff82169050919050565b600061132f82611304565b9050919050565b61133f81611324565b811461134a57600080fd5b50565b60008135905061135c81611336565b92915050565b600060208284031215611378576113776112ff565b5b60006113868482850161134d565b91505092915050565b6000819050919050565b6113a28161138f565b81146113ad57600080fd5b50565b6000813590506113bf81611399565b92915050565b600080604083850312156113dc576113db6112ff565b5b60006113ea858286016113b0565b92505060206113fb8582860161134d565b9150509250929050565b61140e8161138f565b82525050565b60006020820190506114296000830184611405565b92915050565b6000819050919050565b600061145461144f61144a84611304565b61142f565b611304565b9050919050565b600061146682611439565b9050919050565b60006114788261145b565b9050919050565b6114888161146d565b82525050565b60006020820190506114a3600083018461147f565b92915050565b60006040820190506114be6000830185611405565b6114cb6020830184611405565b9392505050565b6114db81611324565b82525050565b60006020820190506114f660008301846114d2565b92915050565b600060208284031215611512576115116112ff565b5b6000611520848285016113b0565b91505092915050565b600082825260208201905092915050565b7f4f776e61626c653a2063616c6c6572206973206e6f7420746865206f776e6572600082015250565b6000611570602083611529565b915061157b8261153a565b602082019050919050565b6000602082019050818103600083015261159f81611563565b9050919050565b7f616d6f756e742063616e6e6f7420626520300000000000000000000000000000600082015250565b60006115dc601283611529565b91506115e7826115a6565b602082019050919050565b6000602082019050818103600083015261160b816115cf565b9050919050565b7f596f75206d75737420756e7374616b65206265666f7265207374616b696e672060008201527f616761696e000000000000000000000000000000000000000000000000000000602082015250565b600061166e602583611529565b915061167982611612565b604082019050919050565b6000602082019050818103600083015261169d81611661565b9050919050565b60006060820190506116b960008301866114d2565b6116c660208301856114d2565b6116d36040830184611405565b949350505050565b60008115159050919050565b6116f0816116db565b81146116fb57600080fd5b50565b60008151905061170d816116e7565b92915050565b600060208284031215611729576117286112ff565b5b6000611737848285016116fe565b91505092915050565b7f4e487b7100000000000000000000000000000000000000000000000000000000600052601160045260246000fd5b600061177a8261138f565b91506117858361138f565b9250827fffffffffffffffffffffffffffffffffffffffffffffffffffffffffffffffff038211156117ba576117b9611740565b5b828201905092915050565b60006117d08261138f565b91506117db8361138f565b9250828210156117ee576117ed611740565b5b828203905092915050565b600069ffffffffffffffffffff82169050919050565b611818816117f9565b811461182357600080fd5b50565b6000815190506118358161180f565b92915050565b6000819050919050565b61184e8161183b565b811461185957600080fd5b50565b60008151905061186b81611845565b92915050565b60008151905061188081611399565b92915050565b600080600080600060a086880312156118a2576118a16112ff565b5b60006118b088828901611826565b95505060206118c18882890161185c565b94505060406118d288828901611871565b93505060606118e388828901611871565b92505060806118f488828901611826565b9150509295509295909350565b600060ff82169050919050565b61191781611901565b811461192257600080fd5b50565b6000815190506119348161190e565b92915050565b6000602082840312156119505761194f6112ff565b5b600061195e84828501611925565b91505092915050565b7f7374616b696e672062616c616e63652063616e6e6f7420626520300000000000600082015250565b600061199d601b83611529565b91506119a882611967565b602082019050919050565b600060208201905081810360008301526119cc81611990565b9050919050565b60006040820190506119e860008301856114d2565b6119f56020830184611405565b9392505050565b7f4e487b7100000000000000000000000000000000000000000000000000000000600052603260045260246000fd5b7f4e487b7100000000000000000000000000000000000000000000000000000000600052603160045260246000fd5b6000606082019050611a6f6000830186611405565b611a7c6020830185611405565b611a896040830184611405565b949350505050565b60008160011c9050919050565b6000808291508390505b6001851115611ae857808604811115611ac457611ac3611740565b5b6001851615611ad35780820291505b8081029050611ae185611a91565b9450611aa8565b94509492505050565b600082611b015760019050611bbd565b81611b0f5760009050611bbd565b8160018114611b255760028114611b2f57611b5e565b6001915050611bbd565b60ff841115611b4157611b40611740565b5b8360020a915084821115611b5857611b57611740565b5b50611bbd565b5060208310610133831016604e8410600b8410161715611b935782820a905083811115611b8e57611b8d611740565b5b611bbd565b611ba08484846001611a9e565b92509050818404811115611bb757611bb6611740565b5b81810290505b9392505050565b6000611bcf8261138f565b9150611bda8361138f565b9250611c077fffffffffffffffffffffffffffffffffffffffffffffffffffffffffffffffff8484611af1565b905092915050565b6000611c1a8261138f565b9150611c258361138f565b9250817fffffffffffffffffffffffffffffffffffffffffffffffffffffffffffffffff0483118215151615611c5e57611c5d611740565b5b828202905092915050565b7f4e487b7100000000000000000000000000000000000000000000000000000000600052601260045260246000fd5b6000611ca38261138f565b9150611cae8361138f565b925082611cbe57611cbd611c69565b5b828204905092915050565b7f4f776e61626c653a206e6577206f776e657220697320746865207a65726f206160008201527f6464726573730000000000000000000000000000000000000000000000000000602082015250565b6000611d25602683611529565b9150611d3082611cc9565b604082019050919050565b60006020820190508181036000830152611d5481611d18565b905091905056fea26469706673582212204dc3d52eb4ad83a999f3f0c1776b2b055053a801ff84fe970c1702d6938382a364736f6c634300080c0033",
  "immutableReferences": {},
  "source": "// SPDX-License-Identifier: MIT\npragma solidity ^0.8.0;\n\nimport \"@chainlink/contracts/src/v0.8/interfaces/AggregatorV3Interface.sol\";\nimport \"@chainlink/contracts/src/v0.8/ChainlinkClient.sol\";\nimport \"@openzeppelin/contracts/token/ERC20/IERC20.sol\";\nimport \"@openzeppelin/contracts/access/Ownable.sol\";\n\n/// @title A staking contract for the ERC-20 FAU token\n/// @author Adrien Guidis\n/// @notice You can use this contract for only the most basic ERC-20 staking simulation\n/// @custom:experimental This is an educational project.\ncontract TokenFarm is ChainlinkClient, Ownable {\n    IERC20 public dappToken;\n\n    /// @notice The reward token DAPP's value is 100$\n    uint8 constant DAPP_PRICE = 100;\n    /// @notice It represents 0.001, since we only use integer numbers. This will give users 0.1% reward for each staked token / H\n    uint16 constant rewardPerHour = 1000;\n\n    /// @notice Only a spcific ERC-20 token is allowed to be staked in this contract\n    address public allowedToken;\n    /// @notice Chainlink price feed to chack the value of our staked token in dollars (DAI/USD)\n    address public priceFeedAddress;\n\n    /// @notice Stores all current stakers addresses\n    address[] public stakers;\n    /// @notice uniqueStaker is used to keep track of the INDEX for the stakers in the stakers array\n    mapping(address => uint256) internal stakerIndexes;\n\n    mapping(address => uint256) public stakingBalance;\n    mapping(address => uint256) public stakingStartTime;\n    mapping(address => uint256) public rewardBalance;\n\n    /// @notice Staked event is triggered whenever a user stakes tokens, address is indexed to make it filterable\n    event Staked(address indexed user, uint256 timestamp, uint256 amount);\n    /// @notice Unstaked event is triggered whenever a user unstakes tokens, address is indexed to make it filterable\n    event Unstaked(\n        address indexed user,\n        uint256 timestamp,\n        uint256 amount,\n        uint256 rewardAmount\n    );\n\n    constructor(address _dappTokenAddress) public {\n        dappToken = IERC20(_dappTokenAddress);\n    }\n\n    /// @notice stakeTokens is used to stake a token amount from a user\n    function stakeTokens(uint256 amount, address token) public {\n        require(amount > 0, \"amount cannot be 0\");\n        require(\n            stakingBalance[msg.sender] == 0,\n            \"You must unstake before staking again\"\n        );\n\n        // We need to approve this transfer because the contract is not the owner of those tokens\n        IERC20(token).transferFrom(msg.sender, address(this), amount);\n        stakingBalance[msg.sender] = stakingBalance[msg.sender] + amount;\n\n        // block.timestamp = timestamp of the current block in seconds since the epoch\n        stakingStartTime[msg.sender] = block.timestamp;\n\n        stakers.push(msg.sender);\n\n        stakerIndexes[msg.sender] = stakers.length - 1;\n\n        emit Staked(msg.sender, amount, block.timestamp);\n    }\n\n    /// @notice unstakeTokens is used to withdraw stakes from the account holder\n    function unstakeTokens() public {\n        require(stakingBalance[msg.sender] > 0, \"staking balance cannot be 0\");\n\n        // Issue reward\n        uint256 rewardAmount = computeRewardTokenAmount(msg.sender);\n        dappToken.transfer(msg.sender, rewardAmount);\n\n        // Contract is the owner so we don't need approval step\n        IERC20(allowedToken).transfer(msg.sender, stakingBalance[msg.sender]);\n\n        // Reset sender staking information\n        stakingBalance[msg.sender] = 0;\n        stakingStartTime[msg.sender] = 0;\n\n        // Finally remove sender from our stakers array\n        uint256 stakerIndex = stakerIndexes[msg.sender];\n        stakers[stakerIndex] = stakers[stakers.length - 1];\n        stakers.pop();\n\n        emit Unstaked(\n            msg.sender,\n            block.timestamp,\n            stakingBalance[msg.sender],\n            rewardAmount\n        );\n    }\n\n    /// @notice Returns the staked tokens value in dollars\n    function getStakingBalanceValue(address user)\n        public\n        view\n        returns (uint256)\n    {\n        if (stakingBalance[user] == 0) {\n            return 0;\n        }\n\n        (uint256 price, uint256 decimals) = getTokenDollarValue();\n        return ((stakingBalance[user] * price) / (10**decimals));\n    }\n\n    /// @notice Returns the current DAI dollar price from Chailink price feed\n    /// @dev The price calcultation is based the pair DAI/USD\n    function getTokenDollarValue() public view returns (uint256, uint256) {\n        AggregatorV3Interface priceFeed = AggregatorV3Interface(\n            priceFeedAddress\n        );\n        (, int256 price, , , ) = priceFeed.latestRoundData();\n        uint256 decimals = uint256(priceFeed.decimals());\n        return (uint256(price), decimals);\n    }\n\n    function setAllowedToken(address token) public onlyOwner {\n        allowedToken = token;\n    }\n\n    function setPriceFeedAddress(address priceFeed) public onlyOwner {\n        priceFeedAddress = priceFeed;\n    }\n\n    /// @notice Compute how much a user should be rewarded for their stake\n    function computeRewardTokenAmount(address user)\n        internal\n        view\n        returns (uint256)\n    {\n        if (stakingBalance[user] == 0) {\n            return 0;\n        }\n\n        uint256 interest = computeStakeInterest(user);\n\n        (uint256 price, uint256 decimals) = getTokenDollarValue();\n        uint256 interestValue = ((interest * price) / (10**decimals));\n\n        return interestValue / DAPP_PRICE;\n    }\n\n    /// @notice Compute the stake interest based on the duration of the active stake\n    function computeStakeInterest(address staker)\n        internal\n        view\n        returns (uint256)\n    {\n        // First calculate how long the stake has been active\n        // Use current seconds since epoch - the seconds since epoch the stake was made\n        // The output will be duration in SECONDS ,\n        // We will reward the user 0.1% per Hour So thats 0.1% per 3600 seconds\n        // the alghoritm is  seconds = block.timestamp - stake seconds (block.timestap - _stake.since)\n        // hours = Seconds / 3600 (seconds /3600) 3600 is an variable in Solidity names hours\n        // we then multiply each token by the hours staked , then divide by the rewardPerHour rate\n        uint256 stakerBalance = stakingBalance[staker];\n        uint256 stakerStartTime = stakingStartTime[staker];\n        uint256 totalSecondsStacked = block.timestamp - stakerStartTime;\n        uint256 stakerBalanceByHours = (totalSecondsStacked / 1 hours) *\n            stakerBalance;\n\n        return stakerBalanceByHours / rewardPerHour;\n    }\n}\n",
  "sourcePath": "/Users/adrien/Alyra/staking-dapp/contracts/TokenFarm.sol",
  "compiler": {
    "name": "solc",
    "version": "0.8.12+commit.f00d7308.Emscripten.clang"
  },
  "schemaVersion": "3.4.3",
  "updatedAt": "2022-03-05T10:38:21.672Z",
  "devdoc": {
    "author": "Adrien Guidis",
    "custom:experimental": "This is an educational project.",
    "kind": "dev",
    "methods": {
      "getTokenDollarValue()": {
        "details": "The price calcultation is based the pair DAI/USD"
      },
      "owner()": {
        "details": "Returns the address of the current owner."
      },
      "renounceOwnership()": {
        "details": "Leaves the contract without owner. It will not be possible to call `onlyOwner` functions anymore. Can only be called by the current owner. NOTE: Renouncing ownership will leave the contract without an owner, thereby removing any functionality that is only available to the owner."
      },
      "transferOwnership(address)": {
        "details": "Transfers ownership of the contract to a new account (`newOwner`). Can only be called by the current owner."
      }
    },
    "title": "A staking contract for the ERC-20 FAU token",
    "version": 1
  },
  "userdoc": {
    "events": {
      "Staked(address,uint256,uint256)": {
        "notice": "Staked event is triggered whenever a user stakes tokens, address is indexed to make it filterable"
      },
      "Unstaked(address,uint256,uint256,uint256)": {
        "notice": "Unstaked event is triggered whenever a user unstakes tokens, address is indexed to make it filterable"
      }
    },
    "kind": "user",
    "methods": {
      "allowedToken()": {
        "notice": "Only a spcific ERC-20 token is allowed to be staked in this contract"
      },
      "getStakingBalanceValue(address)": {
        "notice": "Returns the staked tokens value in dollars"
      },
      "getTokenDollarValue()": {
        "notice": "Returns the current DAI dollar price from Chailink price feed"
      },
      "priceFeedAddress()": {
        "notice": "Chainlink price feed to chack the value of our staked token in dollars (DAI/USD)"
      },
      "stakeTokens(uint256,address)": {
        "notice": "stakeTokens is used to stake a token amount from a user"
      },
      "stakers(uint256)": {
        "notice": "Stores all current stakers addresses"
      },
      "unstakeTokens()": {
        "notice": "unstakeTokens is used to withdraw stakes from the account holder"
      }
    },
    "notice": "You can use this contract for only the most basic ERC-20 staking simulation",
    "version": 1
  }
}