{
  "contractName": "TokenFarm",
  "abi": [
    {
      "inputs": [
        {
          "internalType": "address",
          "name": "_dappTokenAddress",
          "type": "address"
        }
      ],
      "stateMutability": "nonpayable",
      "type": "constructor"
    },
    {
      "anonymous": false,
      "inputs": [
        {
          "indexed": true,
          "internalType": "bytes32",
          "name": "id",
          "type": "bytes32"
        }
      ],
      "name": "ChainlinkCancelled",
      "type": "event"
    },
    {
      "anonymous": false,
      "inputs": [
        {
          "indexed": true,
          "internalType": "bytes32",
          "name": "id",
          "type": "bytes32"
        }
      ],
      "name": "ChainlinkFulfilled",
      "type": "event"
    },
    {
      "anonymous": false,
      "inputs": [
        {
          "indexed": true,
          "internalType": "bytes32",
          "name": "id",
          "type": "bytes32"
        }
      ],
      "name": "ChainlinkRequested",
      "type": "event"
    },
    {
      "anonymous": false,
      "inputs": [
        {
          "indexed": false,
          "internalType": "uint256",
          "name": "stakerStartTime",
          "type": "uint256"
        },
        {
          "indexed": false,
          "internalType": "uint256",
          "name": "stakerEndTime",
          "type": "uint256"
        },
        {
          "indexed": false,
          "internalType": "uint256",
          "name": "stakePeriodInSeconds",
          "type": "uint256"
        },
        {
          "indexed": false,
          "internalType": "uint256",
          "name": "stakePeriodInHours",
          "type": "uint256"
        },
        {
          "indexed": false,
          "internalType": "uint256",
          "name": "amount",
          "type": "uint256"
        },
        {
          "indexed": false,
          "internalType": "uint256",
          "name": "stakerBalanceByHours",
          "type": "uint256"
        },
        {
          "indexed": false,
          "internalType": "uint256",
          "name": "rewardAmount",
          "type": "uint256"
        }
      ],
      "name": "Debug",
      "type": "event"
    },
    {
      "anonymous": false,
      "inputs": [
        {
          "indexed": true,
          "internalType": "address",
          "name": "previousOwner",
          "type": "address"
        },
        {
          "indexed": true,
          "internalType": "address",
          "name": "newOwner",
          "type": "address"
        }
      ],
      "name": "OwnershipTransferred",
      "type": "event"
    },
    {
      "anonymous": false,
      "inputs": [
        {
          "indexed": true,
          "internalType": "address",
          "name": "user",
          "type": "address"
        },
        {
          "indexed": false,
          "internalType": "uint256",
          "name": "timestamp",
          "type": "uint256"
        },
        {
          "indexed": false,
          "internalType": "uint256",
          "name": "amount",
          "type": "uint256"
        }
      ],
      "name": "Staked",
      "type": "event"
    },
    {
      "anonymous": false,
      "inputs": [
        {
          "indexed": true,
          "internalType": "address",
          "name": "user",
          "type": "address"
        },
        {
          "indexed": false,
          "internalType": "uint256",
          "name": "timestamp",
          "type": "uint256"
        },
        {
          "indexed": false,
          "internalType": "uint256",
          "name": "amount",
          "type": "uint256"
        },
        {
          "indexed": false,
          "internalType": "uint256",
          "name": "rewardAmount",
          "type": "uint256"
        }
      ],
      "name": "Unstaked",
      "type": "event"
    },
    {
      "inputs": [],
      "name": "allowedToken",
      "outputs": [
        {
          "internalType": "address",
          "name": "",
          "type": "address"
        }
      ],
      "stateMutability": "view",
      "type": "function"
    },
    {
      "inputs": [],
      "name": "dappToken",
      "outputs": [
        {
          "internalType": "contract IERC20",
          "name": "",
          "type": "address"
        }
      ],
      "stateMutability": "view",
      "type": "function"
    },
    {
      "inputs": [],
      "name": "owner",
      "outputs": [
        {
          "internalType": "address",
          "name": "",
          "type": "address"
        }
      ],
      "stateMutability": "view",
      "type": "function"
    },
    {
      "inputs": [],
      "name": "priceFeedAddress",
      "outputs": [
        {
          "internalType": "address",
          "name": "",
          "type": "address"
        }
      ],
      "stateMutability": "view",
      "type": "function"
    },
    {
      "inputs": [],
      "name": "renounceOwnership",
      "outputs": [],
      "stateMutability": "nonpayable",
      "type": "function"
    },
    {
      "inputs": [
        {
          "internalType": "address",
          "name": "",
          "type": "address"
        }
      ],
      "name": "rewardBalance",
      "outputs": [
        {
          "internalType": "uint256",
          "name": "",
          "type": "uint256"
        }
      ],
      "stateMutability": "view",
      "type": "function"
    },
    {
      "inputs": [
        {
          "internalType": "uint256",
          "name": "",
          "type": "uint256"
        }
      ],
      "name": "stakers",
      "outputs": [
        {
          "internalType": "address",
          "name": "",
          "type": "address"
        }
      ],
      "stateMutability": "view",
      "type": "function"
    },
    {
      "inputs": [
        {
          "internalType": "address",
          "name": "",
          "type": "address"
        }
      ],
      "name": "stakingBalance",
      "outputs": [
        {
          "internalType": "uint256",
          "name": "",
          "type": "uint256"
        }
      ],
      "stateMutability": "view",
      "type": "function"
    },
    {
      "inputs": [
        {
          "internalType": "address",
          "name": "",
          "type": "address"
        }
      ],
      "name": "stakingStartTime",
      "outputs": [
        {
          "internalType": "uint256",
          "name": "",
          "type": "uint256"
        }
      ],
      "stateMutability": "view",
      "type": "function"
    },
    {
      "inputs": [
        {
          "internalType": "address",
          "name": "newOwner",
          "type": "address"
        }
      ],
      "name": "transferOwnership",
      "outputs": [],
      "stateMutability": "nonpayable",
      "type": "function"
    },
    {
      "inputs": [
        {
          "internalType": "uint256",
          "name": "amount",
          "type": "uint256"
        },
        {
          "internalType": "address",
          "name": "token",
          "type": "address"
        }
      ],
      "name": "stakeTokens",
      "outputs": [],
      "stateMutability": "nonpayable",
      "type": "function"
    },
    {
      "inputs": [],
      "name": "unstakeTokens",
      "outputs": [],
      "stateMutability": "nonpayable",
      "type": "function"
    },
    {
      "inputs": [
        {
          "internalType": "address",
          "name": "user",
          "type": "address"
        }
      ],
      "name": "getStakingBalanceValue",
      "outputs": [
        {
          "internalType": "uint256",
          "name": "",
          "type": "uint256"
        }
      ],
      "stateMutability": "view",
      "type": "function"
    },
    {
      "inputs": [],
      "name": "getTokenDollarValue",
      "outputs": [
        {
          "internalType": "uint256",
          "name": "",
          "type": "uint256"
        },
        {
          "internalType": "uint256",
          "name": "",
          "type": "uint256"
        }
      ],
      "stateMutability": "view",
      "type": "function"
    },
    {
      "inputs": [
        {
          "internalType": "address",
          "name": "token",
          "type": "address"
        }
      ],
      "name": "setAllowedToken",
      "outputs": [],
      "stateMutability": "nonpayable",
      "type": "function"
    },
    {
      "inputs": [
        {
          "internalType": "address",
          "name": "priceFeed",
          "type": "address"
        }
      ],
      "name": "setPriceFeedAddress",
      "outputs": [],
      "stateMutability": "nonpayable",
      "type": "function"
    },
    {
      "inputs": [
        {
          "internalType": "address",
          "name": "staker",
          "type": "address"
        },
        {
          "internalType": "uint256",
          "name": "endTime",
          "type": "uint256"
        }
      ],
      "name": "computeStakeInterest",
      "outputs": [
        {
          "internalType": "uint256",
          "name": "",
          "type": "uint256"
        }
      ],
      "stateMutability": "view",
      "type": "function"
    }
  ],
  "bytecode": "0x608060405260016004553480156200001657600080fd5b50604051620021863803806200218683398181016040528101906200003c9190620001dc565b6200005c62000050620000a460201b60201c565b620000ac60201b60201c565b80600760006101000a81548173ffffffffffffffffffffffffffffffffffffffff021916908373ffffffffffffffffffffffffffffffffffffffff160217905550506200020e565b600033905090565b6000600660009054906101000a900473ffffffffffffffffffffffffffffffffffffffff16905081600660006101000a81548173ffffffffffffffffffffffffffffffffffffffff021916908373ffffffffffffffffffffffffffffffffffffffff1602179055508173ffffffffffffffffffffffffffffffffffffffff168173ffffffffffffffffffffffffffffffffffffffff167f8be0079c531659141344cd1fd0a4f28419497f9722a3daafe3b4186f6b6457e060405160405180910390a35050565b600080fd5b600073ffffffffffffffffffffffffffffffffffffffff82169050919050565b6000620001a48262000177565b9050919050565b620001b68162000197565b8114620001c257600080fd5b50565b600081519050620001d681620001ab565b92915050565b600060208284031215620001f557620001f462000172565b5b60006200020584828501620001c5565b91505092915050565b611f68806200021e6000396000f3fe608060405234801561001057600080fd5b506004361061010a5760003560e01c806385fa292f116100a2578063b68490bc11610071578063b68490bc14610294578063d1232730146102b0578063e0abca0b146102e0578063f2fde38b146102fe578063fd5e6dd11461031a5761010a565b806385fa292f1461021e5780638da5cb5b1461023c578063a5ce413b1461025a578063b3ef4cd8146102645761010a565b80635eb186f8116100de5780635eb186f8146101a757806367b40cf7146101c55780636db18093146101f5578063715018a6146102145761010a565b8062cf5db41461010f5780630bea440d1461012b57806312da0be01461014757806345bc78ab14610177575b600080fd5b6101296004803603810190610124919061148d565b61034a565b005b610145600480360381019061014091906114f0565b61040a565b005b610161600480360381019061015c9190611530565b6107be565b60405161016e919061157f565b60405180910390f35b610191600480360381019061018c919061148d565b6108f0565b60405161019e919061157f565b60405180910390f35b6101af610908565b6040516101bc91906115f9565b60405180910390f35b6101df60048036038101906101da919061148d565b61092e565b6040516101ec919061157f565b60405180910390f35b6101fd610946565b60405161020b929190611614565b60405180910390f35b61021c610a6a565b005b610226610af2565b604051610233919061164c565b60405180910390f35b610244610b18565b604051610251919061164c565b60405180910390f35b610262610b42565b005b61027e6004803603810190610279919061148d565b610fa8565b60405161028b919061157f565b60405180910390f35b6102ae60048036038101906102a9919061148d565b611075565b005b6102ca60048036038101906102c5919061148d565b611135565b6040516102d7919061157f565b60405180910390f35b6102e861114d565b6040516102f5919061164c565b60405180910390f35b6103186004803603810190610313919061148d565b611173565b005b610334600480360381019061032f9190611667565b61126b565b604051610341919061164c565b60405180910390f35b6103526112aa565b73ffffffffffffffffffffffffffffffffffffffff16610370610b18565b73ffffffffffffffffffffffffffffffffffffffff16146103c6576040517f08c379a00000000000000000000000000000000000000000000000000000000081526004016103bd906116f1565b60405180910390fd5b80600960006101000a81548173ffffffffffffffffffffffffffffffffffffffff021916908373ffffffffffffffffffffffffffffffffffffffff16021790555050565b600860009054906101000a900473ffffffffffffffffffffffffffffffffffffffff1673ffffffffffffffffffffffffffffffffffffffff168173ffffffffffffffffffffffffffffffffffffffff161461049a576040517f08c379a00000000000000000000000000000000000000000000000000000000081526004016104919061175d565b60405180910390fd5b600082116104dd576040517f08c379a00000000000000000000000000000000000000000000000000000000081526004016104d4906117c9565b60405180910390fd5b6000600c60003373ffffffffffffffffffffffffffffffffffffffff1673ffffffffffffffffffffffffffffffffffffffff168152602001908152602001600020541461055f576040517f08c379a00000000000000000000000000000000000000000000000000000000081526004016105569061185b565b60405180910390fd5b8073ffffffffffffffffffffffffffffffffffffffff166323b872dd3330856040518463ffffffff1660e01b815260040161059c9392919061187b565b6020604051808303816000875af11580156105bb573d6000803e3d6000fd5b505050506040513d601f19601f820116820180604052508101906105df91906118ea565b5081600c60003373ffffffffffffffffffffffffffffffffffffffff1673ffffffffffffffffffffffffffffffffffffffff1681526020019081526020016000205461062b9190611946565b600c60003373ffffffffffffffffffffffffffffffffffffffff1673ffffffffffffffffffffffffffffffffffffffff1681526020019081526020016000208190555042600d60003373ffffffffffffffffffffffffffffffffffffffff1673ffffffffffffffffffffffffffffffffffffffff16815260200190815260200160002081905550600a339080600181540180825580915050600190039060005260206000200160009091909190916101000a81548173ffffffffffffffffffffffffffffffffffffffff021916908373ffffffffffffffffffffffffffffffffffffffff1602179055506001600a80549050610727919061199c565b600b60003373ffffffffffffffffffffffffffffffffffffffff1673ffffffffffffffffffffffffffffffffffffffff168152602001908152602001600020819055503373ffffffffffffffffffffffffffffffffffffffff167f1449c6dd7851abc30abf37f57715f492010519147cc2652fbc38202c18a6ee9042846040516107b2929190611614565b60405180910390a25050565b600080600c60008573ffffffffffffffffffffffffffffffffffffffff1673ffffffffffffffffffffffffffffffffffffffff16815260200190815260200160002054141561081057600090506108ea565b6000600c60008573ffffffffffffffffffffffffffffffffffffffff1673ffffffffffffffffffffffffffffffffffffffff1681526020019081526020016000205490506000600d60008673ffffffffffffffffffffffffffffffffffffffff1673ffffffffffffffffffffffffffffffffffffffff168152602001908152602001600020549050600081856108a6919061199c565b90506000610e10826108b891906119ff565b9050600084826108c89190611a30565b905060006103e861ffff16826108de91906119ff565b90508096505050505050505b92915050565b600c6020528060005260406000206000915090505481565b600760009054906101000a900473ffffffffffffffffffffffffffffffffffffffff1681565b600e6020528060005260406000206000915090505481565b6000806000600960009054906101000a900473ffffffffffffffffffffffffffffffffffffffff16905060008173ffffffffffffffffffffffffffffffffffffffff1663feaf968c6040518163ffffffff1660e01b815260040160a060405180830381865afa1580156109bd573d6000803e3d6000fd5b505050506040513d601f19601f820116820180604052508101906109e19190611b17565b50505091505060008273ffffffffffffffffffffffffffffffffffffffff1663313ce5676040518163ffffffff1660e01b8152600401602060405180830381865afa158015610a34573d6000803e3d6000fd5b505050506040513d601f19601f82011682018060405250810190610a589190611bcb565b60ff1690508181945094505050509091565b610a726112aa565b73ffffffffffffffffffffffffffffffffffffffff16610a90610b18565b73ffffffffffffffffffffffffffffffffffffffff1614610ae6576040517f08c379a0000000000000000000000000000000000000000000000000000000008152600401610add906116f1565b60405180910390fd5b610af060006112b2565b565b600860009054906101000a900473ffffffffffffffffffffffffffffffffffffffff1681565b6000600660009054906101000a900473ffffffffffffffffffffffffffffffffffffffff16905090565b6000600c60003373ffffffffffffffffffffffffffffffffffffffff1673ffffffffffffffffffffffffffffffffffffffff1681526020019081526020016000205411610bc4576040517f08c379a0000000000000000000000000000000000000000000000000000000008152600401610bbb90611c44565b60405180910390fd5b6000610bcf33611378565b9050600760009054906101000a900473ffffffffffffffffffffffffffffffffffffffff1673ffffffffffffffffffffffffffffffffffffffff1663a9059cbb33836040518363ffffffff1660e01b8152600401610c2e929190611c64565b6020604051808303816000875af1158015610c4d573d6000803e3d6000fd5b505050506040513d601f19601f82011682018060405250810190610c7191906118ea565b50600860009054906101000a900473ffffffffffffffffffffffffffffffffffffffff1673ffffffffffffffffffffffffffffffffffffffff1663a9059cbb33600c60003373ffffffffffffffffffffffffffffffffffffffff1673ffffffffffffffffffffffffffffffffffffffff168152602001908152602001600020546040518363ffffffff1660e01b8152600401610d0e929190611c64565b6020604051808303816000875af1158015610d2d573d6000803e3d6000fd5b505050506040513d601f19601f82011682018060405250810190610d5191906118ea565b506000600c60003373ffffffffffffffffffffffffffffffffffffffff1673ffffffffffffffffffffffffffffffffffffffff168152602001908152602001600020819055506000600d60003373ffffffffffffffffffffffffffffffffffffffff1673ffffffffffffffffffffffffffffffffffffffff168152602001908152602001600020819055506000600b60003373ffffffffffffffffffffffffffffffffffffffff1673ffffffffffffffffffffffffffffffffffffffff168152602001908152602001600020549050600a6001600a80549050610e34919061199c565b81548110610e4557610e44611c8d565b5b9060005260206000200160009054906101000a900473ffffffffffffffffffffffffffffffffffffffff16600a8281548110610e8457610e83611c8d565b5b9060005260206000200160006101000a81548173ffffffffffffffffffffffffffffffffffffffff021916908373ffffffffffffffffffffffffffffffffffffffff160217905550600a805480610ede57610edd611cbc565b5b6001900381819060005260206000200160006101000a81549073ffffffffffffffffffffffffffffffffffffffff021916905590553373ffffffffffffffffffffffffffffffffffffffff167f204fccf0d92ed8d48f204adb39b2e81e92bad0dedb93f5716ca9478cfb57de0042600c60003373ffffffffffffffffffffffffffffffffffffffff1673ffffffffffffffffffffffffffffffffffffffff1681526020019081526020016000205485604051610f9c93929190611ceb565b60405180910390a25050565b600080600c60008473ffffffffffffffffffffffffffffffffffffffff1673ffffffffffffffffffffffffffffffffffffffff168152602001908152602001600020541415610ffa5760009050611070565b600080611005610946565b9150915080600a6110169190611e55565b82600c60008773ffffffffffffffffffffffffffffffffffffffff1673ffffffffffffffffffffffffffffffffffffffff168152602001908152602001600020546110619190611a30565b61106b91906119ff565b925050505b919050565b61107d6112aa565b73ffffffffffffffffffffffffffffffffffffffff1661109b610b18565b73ffffffffffffffffffffffffffffffffffffffff16146110f1576040517f08c379a00000000000000000000000000000000000000000000000000000000081526004016110e8906116f1565b60405180910390fd5b80600860006101000a81548173ffffffffffffffffffffffffffffffffffffffff021916908373ffffffffffffffffffffffffffffffffffffffff16021790555050565b600d6020528060005260406000206000915090505481565b600960009054906101000a900473ffffffffffffffffffffffffffffffffffffffff1681565b61117b6112aa565b73ffffffffffffffffffffffffffffffffffffffff16611199610b18565b73ffffffffffffffffffffffffffffffffffffffff16146111ef576040517f08c379a00000000000000000000000000000000000000000000000000000000081526004016111e6906116f1565b60405180910390fd5b600073ffffffffffffffffffffffffffffffffffffffff168173ffffffffffffffffffffffffffffffffffffffff16141561125f576040517f08c379a000000000000000000000000000000000000000000000000000000000815260040161125690611f12565b60405180910390fd5b611268816112b2565b50565b600a818154811061127b57600080fd5b906000526020600020016000915054906101000a900473ffffffffffffffffffffffffffffffffffffffff1681565b600033905090565b6000600660009054906101000a900473ffffffffffffffffffffffffffffffffffffffff16905081600660006101000a81548173ffffffffffffffffffffffffffffffffffffffff021916908373ffffffffffffffffffffffffffffffffffffffff1602179055508173ffffffffffffffffffffffffffffffffffffffff168173ffffffffffffffffffffffffffffffffffffffff167f8be0079c531659141344cd1fd0a4f28419497f9722a3daafe3b4186f6b6457e060405160405180910390a35050565b600080600c60008473ffffffffffffffffffffffffffffffffffffffff1673ffffffffffffffffffffffffffffffffffffffff1681526020019081526020016000205414156113ca5760009050611425565b60006113d683426107be565b90506000806113e3610946565b91509150600081600a6113f69190611e55565b83856114029190611a30565b61140c91906119ff565b9050606460ff168161141e91906119ff565b9450505050505b919050565b600080fd5b600073ffffffffffffffffffffffffffffffffffffffff82169050919050565b600061145a8261142f565b9050919050565b61146a8161144f565b811461147557600080fd5b50565b60008135905061148781611461565b92915050565b6000602082840312156114a3576114a261142a565b5b60006114b184828501611478565b91505092915050565b6000819050919050565b6114cd816114ba565b81146114d857600080fd5b50565b6000813590506114ea816114c4565b92915050565b600080604083850312156115075761150661142a565b5b6000611515858286016114db565b925050602061152685828601611478565b9150509250929050565b600080604083850312156115475761154661142a565b5b600061155585828601611478565b9250506020611566858286016114db565b9150509250929050565b611579816114ba565b82525050565b60006020820190506115946000830184611570565b92915050565b6000819050919050565b60006115bf6115ba6115b58461142f565b61159a565b61142f565b9050919050565b60006115d1826115a4565b9050919050565b60006115e3826115c6565b9050919050565b6115f3816115d8565b82525050565b600060208201905061160e60008301846115ea565b92915050565b60006040820190506116296000830185611570565b6116366020830184611570565b9392505050565b6116468161144f565b82525050565b6000602082019050611661600083018461163d565b92915050565b60006020828403121561167d5761167c61142a565b5b600061168b848285016114db565b91505092915050565b600082825260208201905092915050565b7f4f776e61626c653a2063616c6c6572206973206e6f7420746865206f776e6572600082015250565b60006116db602083611694565b91506116e6826116a5565b602082019050919050565b6000602082019050818103600083015261170a816116ce565b9050919050565b7f455243323020546f6b656e206e6f7420616c6c6f776564000000000000000000600082015250565b6000611747601783611694565b915061175282611711565b602082019050919050565b600060208201905081810360008301526117768161173a565b9050919050565b7f416d6f756e742063616e6e6f7420626520656d70747900000000000000000000600082015250565b60006117b3601683611694565b91506117be8261177d565b602082019050919050565b600060208201905081810360008301526117e2816117a6565b9050919050565b7f596f75206d75737420756e7374616b65206265666f7265207374616b696e672060008201527f616761696e000000000000000000000000000000000000000000000000000000602082015250565b6000611845602583611694565b9150611850826117e9565b604082019050919050565b6000602082019050818103600083015261187481611838565b9050919050565b6000606082019050611890600083018661163d565b61189d602083018561163d565b6118aa6040830184611570565b949350505050565b60008115159050919050565b6118c7816118b2565b81146118d257600080fd5b50565b6000815190506118e4816118be565b92915050565b600060208284031215611900576118ff61142a565b5b600061190e848285016118d5565b91505092915050565b7f4e487b7100000000000000000000000000000000000000000000000000000000600052601160045260246000fd5b6000611951826114ba565b915061195c836114ba565b9250827fffffffffffffffffffffffffffffffffffffffffffffffffffffffffffffffff0382111561199157611990611917565b5b828201905092915050565b60006119a7826114ba565b91506119b2836114ba565b9250828210156119c5576119c4611917565b5b828203905092915050565b7f4e487b7100000000000000000000000000000000000000000000000000000000600052601260045260246000fd5b6000611a0a826114ba565b9150611a15836114ba565b925082611a2557611a246119d0565b5b828204905092915050565b6000611a3b826114ba565b9150611a46836114ba565b9250817fffffffffffffffffffffffffffffffffffffffffffffffffffffffffffffffff0483118215151615611a7f57611a7e611917565b5b828202905092915050565b600069ffffffffffffffffffff82169050919050565b611aa981611a8a565b8114611ab457600080fd5b50565b600081519050611ac681611aa0565b92915050565b6000819050919050565b611adf81611acc565b8114611aea57600080fd5b50565b600081519050611afc81611ad6565b92915050565b600081519050611b11816114c4565b92915050565b600080600080600060a08688031215611b3357611b3261142a565b5b6000611b4188828901611ab7565b9550506020611b5288828901611aed565b9450506040611b6388828901611b02565b9350506060611b7488828901611b02565b9250506080611b8588828901611ab7565b9150509295509295909350565b600060ff82169050919050565b611ba881611b92565b8114611bb357600080fd5b50565b600081519050611bc581611b9f565b92915050565b600060208284031215611be157611be061142a565b5b6000611bef84828501611bb6565b91505092915050565b7f7374616b696e672062616c616e63652063616e6e6f7420626520300000000000600082015250565b6000611c2e601b83611694565b9150611c3982611bf8565b602082019050919050565b60006020820190508181036000830152611c5d81611c21565b9050919050565b6000604082019050611c79600083018561163d565b611c866020830184611570565b9392505050565b7f4e487b7100000000000000000000000000000000000000000000000000000000600052603260045260246000fd5b7f4e487b7100000000000000000000000000000000000000000000000000000000600052603160045260246000fd5b6000606082019050611d006000830186611570565b611d0d6020830185611570565b611d1a6040830184611570565b949350505050565b60008160011c9050919050565b6000808291508390505b6001851115611d7957808604811115611d5557611d54611917565b5b6001851615611d645780820291505b8081029050611d7285611d22565b9450611d39565b94509492505050565b600082611d925760019050611e4e565b81611da05760009050611e4e565b8160018114611db65760028114611dc057611def565b6001915050611e4e565b60ff841115611dd257611dd1611917565b5b8360020a915084821115611de957611de8611917565b5b50611e4e565b5060208310610133831016604e8410600b8410161715611e245782820a905083811115611e1f57611e1e611917565b5b611e4e565b611e318484846001611d2f565b92509050818404811115611e4857611e47611917565b5b81810290505b9392505050565b6000611e60826114ba565b9150611e6b836114ba565b9250611e987fffffffffffffffffffffffffffffffffffffffffffffffffffffffffffffffff8484611d82565b905092915050565b7f4f776e61626c653a206e6577206f776e657220697320746865207a65726f206160008201527f6464726573730000000000000000000000000000000000000000000000000000602082015250565b6000611efc602683611694565b9150611f0782611ea0565b604082019050919050565b60006020820190508181036000830152611f2b81611eef565b905091905056fea264697066735822122022823998a87d4ac19f987643c189a15f9fdaceb80b82594cfc0aa3c047f16a3e64736f6c634300080c0033",
  "immutableReferences": {},
  "source": "// SPDX-License-Identifier: MIT\npragma solidity ^0.8.0;\n\nimport \"@chainlink/contracts/src/v0.8/interfaces/AggregatorV3Interface.sol\";\nimport \"@chainlink/contracts/src/v0.8/ChainlinkClient.sol\";\nimport \"@openzeppelin/contracts/token/ERC20/IERC20.sol\";\nimport \"@openzeppelin/contracts/access/Ownable.sol\";\n\n/// @title A staking contract for the ERC-20 FAU token\n/// @author Adrien Guidis\n/// @notice You can use this contract for only the most basic ERC-20 staking simulation\n/// @custom:experimental This is an educational project.\ncontract TokenFarm is ChainlinkClient, Ownable {\n    IERC20 public dappToken;\n\n    /// @notice The reward token DAPP's value is 100$\n    uint8 constant DAPP_PRICE = 100;\n    /// @notice It represents 0.001, since we only use integer numbers. This will give users 0.1% reward for each staked token / H\n    uint16 constant rewardPerHour = 1000;\n\n    /// @notice Only a spcific ERC-20 token is allowed to be staked in this contract\n    address public allowedToken;\n    /// @notice Chainlink price feed to chack the value of our staked token in dollars (DAI/USD)\n    address public priceFeedAddress;\n\n    /// @notice Stores all current stakers addresses\n    address[] public stakers;\n    /// @notice uniqueStaker is used to keep track of the INDEX for the stakers in the stakers array\n    mapping(address => uint256) internal stakerIndexes;\n\n    mapping(address => uint256) public stakingBalance;\n    mapping(address => uint256) public stakingStartTime;\n    mapping(address => uint256) public rewardBalance;\n\n    /// @notice Staked event is triggered whenever a user stakes tokens, address is indexed to make it filterable\n    event Staked(address indexed user, uint256 timestamp, uint256 amount);\n    /// @notice Unstaked event is triggered whenever a user unstakes tokens, address is indexed to make it filterable\n    event Unstaked(\n        address indexed user,\n        uint256 timestamp,\n        uint256 amount,\n        uint256 rewardAmount\n    );\n\n    event Debug(\n        uint256 stakerStartTime,\n        uint256 stakerEndTime,\n        uint256 stakePeriodInSeconds,\n        uint256 stakePeriodInHours,\n        uint256 amount,\n        uint256 stakerBalanceByHours,\n        uint256 rewardAmount\n    );\n\n    constructor(address _dappTokenAddress) public {\n        dappToken = IERC20(_dappTokenAddress);\n    }\n\n    /// @notice stakeTokens is used to stake a token amount from a user\n    function stakeTokens(uint256 amount, address token) public {\n        require(token == allowedToken, \"ERC20 Token not allowed\");\n        require(amount > 0, \"Amount cannot be empty\");\n        require(\n            stakingBalance[msg.sender] == 0,\n            \"You must unstake before staking again\"\n        );\n\n        // We need to approve this transfer because the contract is not the owner of those tokens\n        IERC20(token).transferFrom(msg.sender, address(this), amount);\n        stakingBalance[msg.sender] = stakingBalance[msg.sender] + amount;\n\n        // block.timestamp = timestamp of the current block in seconds since the epoch\n        stakingStartTime[msg.sender] = block.timestamp;\n\n        stakers.push(msg.sender);\n\n        stakerIndexes[msg.sender] = stakers.length - 1;\n\n        emit Staked(msg.sender, block.timestamp, amount);\n    }\n\n    /// @notice Used to withdraw stakes from the account holder\n    function unstakeTokens() public {\n        require(stakingBalance[msg.sender] > 0, \"staking balance cannot be 0\");\n\n        // Issue reward\n        uint256 rewardAmount = computeRewardTokenAmount(msg.sender);\n        dappToken.transfer(msg.sender, rewardAmount);\n\n        // Contract is the owner so we don't need approval step\n        IERC20(allowedToken).transfer(msg.sender, stakingBalance[msg.sender]);\n\n        // Reset sender staking information\n        stakingBalance[msg.sender] = 0;\n        stakingStartTime[msg.sender] = 0;\n\n        // Finally remove sender from our stakers array\n        uint256 stakerIndex = stakerIndexes[msg.sender];\n        stakers[stakerIndex] = stakers[stakers.length - 1];\n        stakers.pop();\n\n        emit Unstaked(\n            msg.sender,\n            block.timestamp,\n            stakingBalance[msg.sender],\n            rewardAmount\n        );\n    }\n\n    /// @notice Returns the staked tokens value in dollars\n    function getStakingBalanceValue(address user)\n        public\n        view\n        returns (uint256)\n    {\n        if (stakingBalance[user] == 0) {\n            return 0;\n        }\n\n        (uint256 price, uint256 decimals) = getTokenDollarValue();\n        return ((stakingBalance[user] * price) / (10**decimals));\n    }\n\n    /// @notice Returns the current DAI dollar price from Chailink price feed\n    /// @dev The price calcultation is based the pair DAI/USD\n    function getTokenDollarValue() public view returns (uint256, uint256) {\n        AggregatorV3Interface priceFeed = AggregatorV3Interface(\n            priceFeedAddress\n        );\n        (, int256 price, , , ) = priceFeed.latestRoundData();\n        uint256 decimals = uint256(priceFeed.decimals());\n        return (uint256(price), decimals);\n    }\n\n    function setAllowedToken(address token) public onlyOwner {\n        allowedToken = token;\n    }\n\n    function setPriceFeedAddress(address priceFeed) public onlyOwner {\n        priceFeedAddress = priceFeed;\n    }\n\n    /// @notice Compute how much a user should be rewarded for their stake\n    function computeRewardTokenAmount(address user)\n        internal\n        view\n        returns (uint256)\n    {\n        if (stakingBalance[user] == 0) {\n            return 0;\n        }\n\n        uint256 interest = computeStakeInterest(user, block.timestamp);\n\n        (uint256 price, uint256 decimals) = getTokenDollarValue();\n        uint256 interestValue = ((interest * price) / (10**decimals));\n\n        return interestValue / DAPP_PRICE;\n    }\n\n    /// @notice Compute the stake interest based on the duration of the active stake\n    function computeStakeInterest(address staker, uint256 endTime)\n        public\n        view\n        returns (uint256)\n    {\n        if (stakingBalance[staker] == 0) {\n            return 0;\n        }\n\n        // First calculate how long the stake has been active\n        // Use current seconds since epoch - the seconds since epoch the stake was made\n        // The output will be duration in SECONDS ,\n        // We will reward the user 0.1% per Hour So thats 0.1% per 3600 seconds\n        // the alghoritm is  seconds = endTime - start stake time (in seconds)\n        // hours = seconds / 3600 (seconds /3600) 3600 is an variable in Solidity names hours\n        // we then multiply each token by the hours staked , then divide by the rewardPerHour rate\n        uint256 stakerBalance = stakingBalance[staker];\n        uint256 stakerStartTime = stakingStartTime[staker];\n        uint256 stakePeriodInSeconds = endTime - stakerStartTime;\n        uint256 stakePeriodInHours = stakePeriodInSeconds / 3600;\n        uint256 stakerBalanceByHours = stakePeriodInHours * stakerBalance;\n        uint256 reward = stakerBalanceByHours / rewardPerHour;\n\n        return reward;\n    }\n}\n",
  "sourcePath": "/Users/adrien/Alyra/staking-dapp/contracts/TokenFarm.sol",
  "compiler": {
    "name": "solc",
    "version": "0.8.12+commit.f00d7308.Emscripten.clang"
  },
  "schemaVersion": "3.4.3",
  "updatedAt": "2022-03-13T17:35:23.803Z",
  "devdoc": {
    "author": "Adrien Guidis",
    "custom:experimental": "This is an educational project.",
    "kind": "dev",
    "methods": {
      "getTokenDollarValue()": {
        "details": "The price calcultation is based the pair DAI/USD"
      },
      "owner()": {
        "details": "Returns the address of the current owner."
      },
      "renounceOwnership()": {
        "details": "Leaves the contract without owner. It will not be possible to call `onlyOwner` functions anymore. Can only be called by the current owner. NOTE: Renouncing ownership will leave the contract without an owner, thereby removing any functionality that is only available to the owner."
      },
      "transferOwnership(address)": {
        "details": "Transfers ownership of the contract to a new account (`newOwner`). Can only be called by the current owner."
      }
    },
    "title": "A staking contract for the ERC-20 FAU token",
    "version": 1
  },
  "userdoc": {
    "events": {
      "Staked(address,uint256,uint256)": {
        "notice": "Staked event is triggered whenever a user stakes tokens, address is indexed to make it filterable"
      },
      "Unstaked(address,uint256,uint256,uint256)": {
        "notice": "Unstaked event is triggered whenever a user unstakes tokens, address is indexed to make it filterable"
      }
    },
    "kind": "user",
    "methods": {
      "allowedToken()": {
        "notice": "Only a spcific ERC-20 token is allowed to be staked in this contract"
      },
      "computeStakeInterest(address,uint256)": {
        "notice": "Compute the stake interest based on the duration of the active stake"
      },
      "getStakingBalanceValue(address)": {
        "notice": "Returns the staked tokens value in dollars"
      },
      "getTokenDollarValue()": {
        "notice": "Returns the current DAI dollar price from Chailink price feed"
      },
      "priceFeedAddress()": {
        "notice": "Chainlink price feed to chack the value of our staked token in dollars (DAI/USD)"
      },
      "stakeTokens(uint256,address)": {
        "notice": "stakeTokens is used to stake a token amount from a user"
      },
      "stakers(uint256)": {
        "notice": "Stores all current stakers addresses"
      },
      "unstakeTokens()": {
        "notice": "Used to withdraw stakes from the account holder"
      }
    },
    "notice": "You can use this contract for only the most basic ERC-20 staking simulation",
    "version": 1
  }
}