{
  "contractName": "TokenFarm",
  "abi": [
    {
      "inputs": [
        {
          "internalType": "address",
          "name": "_dappTokenAddress",
          "type": "address"
        }
      ],
      "stateMutability": "nonpayable",
      "type": "constructor"
    },
    {
      "anonymous": false,
      "inputs": [
        {
          "indexed": true,
          "internalType": "bytes32",
          "name": "id",
          "type": "bytes32"
        }
      ],
      "name": "ChainlinkCancelled",
      "type": "event"
    },
    {
      "anonymous": false,
      "inputs": [
        {
          "indexed": true,
          "internalType": "bytes32",
          "name": "id",
          "type": "bytes32"
        }
      ],
      "name": "ChainlinkFulfilled",
      "type": "event"
    },
    {
      "anonymous": false,
      "inputs": [
        {
          "indexed": true,
          "internalType": "bytes32",
          "name": "id",
          "type": "bytes32"
        }
      ],
      "name": "ChainlinkRequested",
      "type": "event"
    },
    {
      "anonymous": false,
      "inputs": [
        {
          "indexed": true,
          "internalType": "address",
          "name": "previousOwner",
          "type": "address"
        },
        {
          "indexed": true,
          "internalType": "address",
          "name": "newOwner",
          "type": "address"
        }
      ],
      "name": "OwnershipTransferred",
      "type": "event"
    },
    {
      "anonymous": false,
      "inputs": [
        {
          "indexed": true,
          "internalType": "address",
          "name": "user",
          "type": "address"
        },
        {
          "indexed": false,
          "internalType": "uint256",
          "name": "timestamp",
          "type": "uint256"
        },
        {
          "indexed": false,
          "internalType": "uint256",
          "name": "amount",
          "type": "uint256"
        }
      ],
      "name": "Staked",
      "type": "event"
    },
    {
      "anonymous": false,
      "inputs": [
        {
          "indexed": true,
          "internalType": "address",
          "name": "user",
          "type": "address"
        },
        {
          "indexed": false,
          "internalType": "uint256",
          "name": "timestamp",
          "type": "uint256"
        },
        {
          "indexed": false,
          "internalType": "uint256",
          "name": "rewardAmount",
          "type": "uint256"
        }
      ],
      "name": "Unstaked",
      "type": "event"
    },
    {
      "inputs": [],
      "name": "allowedToken",
      "outputs": [
        {
          "internalType": "address",
          "name": "",
          "type": "address"
        }
      ],
      "stateMutability": "view",
      "type": "function"
    },
    {
      "inputs": [],
      "name": "dappToken",
      "outputs": [
        {
          "internalType": "contract IERC20",
          "name": "",
          "type": "address"
        }
      ],
      "stateMutability": "view",
      "type": "function"
    },
    {
      "inputs": [],
      "name": "owner",
      "outputs": [
        {
          "internalType": "address",
          "name": "",
          "type": "address"
        }
      ],
      "stateMutability": "view",
      "type": "function"
    },
    {
      "inputs": [],
      "name": "priceFeedAddress",
      "outputs": [
        {
          "internalType": "address",
          "name": "",
          "type": "address"
        }
      ],
      "stateMutability": "view",
      "type": "function"
    },
    {
      "inputs": [],
      "name": "renounceOwnership",
      "outputs": [],
      "stateMutability": "nonpayable",
      "type": "function"
    },
    {
      "inputs": [
        {
          "internalType": "uint256",
          "name": "",
          "type": "uint256"
        }
      ],
      "name": "stakers",
      "outputs": [
        {
          "internalType": "address",
          "name": "",
          "type": "address"
        }
      ],
      "stateMutability": "view",
      "type": "function"
    },
    {
      "inputs": [
        {
          "internalType": "address",
          "name": "newOwner",
          "type": "address"
        }
      ],
      "name": "transferOwnership",
      "outputs": [],
      "stateMutability": "nonpayable",
      "type": "function"
    },
    {
      "inputs": [
        {
          "internalType": "uint256",
          "name": "amount",
          "type": "uint256"
        },
        {
          "internalType": "address",
          "name": "token",
          "type": "address"
        }
      ],
      "name": "stake",
      "outputs": [],
      "stateMutability": "nonpayable",
      "type": "function"
    },
    {
      "inputs": [
        {
          "internalType": "uint256",
          "name": "stakeIndex",
          "type": "uint256"
        }
      ],
      "name": "withdraw",
      "outputs": [],
      "stateMutability": "nonpayable",
      "type": "function"
    },
    {
      "inputs": [
        {
          "internalType": "address",
          "name": "user",
          "type": "address"
        }
      ],
      "name": "getStakingBalanceValue",
      "outputs": [
        {
          "internalType": "uint256",
          "name": "",
          "type": "uint256"
        }
      ],
      "stateMutability": "view",
      "type": "function"
    },
    {
      "inputs": [],
      "name": "getTokenDollarValue",
      "outputs": [
        {
          "internalType": "uint256",
          "name": "",
          "type": "uint256"
        },
        {
          "internalType": "uint256",
          "name": "",
          "type": "uint256"
        }
      ],
      "stateMutability": "view",
      "type": "function"
    },
    {
      "inputs": [
        {
          "internalType": "address",
          "name": "token",
          "type": "address"
        }
      ],
      "name": "setAllowedToken",
      "outputs": [],
      "stateMutability": "nonpayable",
      "type": "function"
    },
    {
      "inputs": [
        {
          "internalType": "address",
          "name": "priceFeed",
          "type": "address"
        }
      ],
      "name": "setPriceFeedAddress",
      "outputs": [],
      "stateMutability": "nonpayable",
      "type": "function"
    },
    {
      "inputs": [
        {
          "internalType": "uint256",
          "name": "amount",
          "type": "uint256"
        },
        {
          "internalType": "uint256",
          "name": "startTime",
          "type": "uint256"
        },
        {
          "internalType": "uint256",
          "name": "endTime",
          "type": "uint256"
        }
      ],
      "name": "computeStakeInterest",
      "outputs": [
        {
          "internalType": "uint256",
          "name": "",
          "type": "uint256"
        }
      ],
      "stateMutability": "pure",
      "type": "function"
    }
  ],
  "bytecode": "0x608060405260016004553480156200001657600080fd5b5060405162001deb38038062001deb83398181016040528101906200003c9190620001dc565b6200005c62000050620000a460201b60201c565b620000ac60201b60201c565b80600760006101000a81548173ffffffffffffffffffffffffffffffffffffffff021916908373ffffffffffffffffffffffffffffffffffffffff160217905550506200020e565b600033905090565b6000600660009054906101000a900473ffffffffffffffffffffffffffffffffffffffff16905081600660006101000a81548173ffffffffffffffffffffffffffffffffffffffff021916908373ffffffffffffffffffffffffffffffffffffffff1602179055508173ffffffffffffffffffffffffffffffffffffffff168173ffffffffffffffffffffffffffffffffffffffff167f8be0079c531659141344cd1fd0a4f28419497f9722a3daafe3b4186f6b6457e060405160405180910390a35050565b600080fd5b600073ffffffffffffffffffffffffffffffffffffffff82169050919050565b6000620001a48262000177565b9050919050565b620001b68162000197565b8114620001c257600080fd5b50565b600081519050620001d681620001ab565b92915050565b600060208284031215620001f557620001f462000172565b5b60006200020584828501620001c5565b91505092915050565b611bcd806200021e6000396000f3fe608060405234801561001057600080fd5b50600436106100e95760003560e01c80638da5cb5b1161008c578063be0b5adc11610066578063be0b5adc14610211578063e0abca0b14610241578063f2fde38b1461025f578063fd5e6dd11461027b576100e9565b80638da5cb5b146101a7578063b3ef4cd8146101c5578063b68490bc146101f5576100e9565b80636db18093116100c85780636db1809314610144578063715018a6146101635780637acb77571461016d57806385fa292f14610189576100e9565b8062cf5db4146100ee5780632e1a7d4d1461010a5780635eb186f814610126575b600080fd5b6101086004803603810190610103919061113c565b6102ab565b005b610124600480360381019061011f919061119f565b61036b565b005b61012e6107b3565b60405161013b919061122b565b60405180910390f35b61014c6107d9565b60405161015a929190611255565b60405180910390f35b61016b6108fd565b005b6101876004803603810190610182919061127e565b610985565b005b610191610c1c565b60405161019e91906112cd565b60405180910390f35b6101af610c42565b6040516101bc91906112cd565b60405180910390f35b6101df60048036038101906101da919061113c565b610c6c565b6040516101ec91906112e8565b60405180910390f35b61020f600480360381019061020a919061113c565b610d07565b005b61022b60048036038101906102269190611303565b610dc7565b60405161023891906112e8565b60405180910390f35b610249610e30565b60405161025691906112cd565b60405180910390f35b6102796004803603810190610274919061113c565b610e56565b005b6102956004803603810190610290919061119f565b610f4d565b6040516102a291906112cd565b60405180910390f35b6102b3610f8c565b73ffffffffffffffffffffffffffffffffffffffff166102d1610c42565b73ffffffffffffffffffffffffffffffffffffffff1614610327576040517f08c379a000000000000000000000000000000000000000000000000000000000815260040161031e906113b3565b60405180910390fd5b80600960006101000a81548173ffffffffffffffffffffffffffffffffffffffff021916908373ffffffffffffffffffffffffffffffffffffffff16021790555050565b6000600c60003373ffffffffffffffffffffffffffffffffffffffff1673ffffffffffffffffffffffffffffffffffffffff168152602001908152602001600020905060008160000154116103f5576040517f08c379a00000000000000000000000000000000000000000000000000000000081526004016103ec9061141f565b60405180910390fd5b6000600b60003373ffffffffffffffffffffffffffffffffffffffff1673ffffffffffffffffffffffffffffffffffffffff16815260200190815260200160002083815481106104485761044761143f565b5b906000526020600020906002020160405180604001604052908160008201548152602001600182015481525050905060008160000151116104be576040517f08c379a00000000000000000000000000000000000000000000000000000000081526004016104b5906114ba565b60405180910390fd5b60006104c982610f94565b9050600760009054906101000a900473ffffffffffffffffffffffffffffffffffffffff1673ffffffffffffffffffffffffffffffffffffffff1663a9059cbb33836040518363ffffffff1660e01b81526004016105289291906114da565b6020604051808303816000875af1158015610547573d6000803e3d6000fd5b505050506040513d601f19601f8201168201806040525081019061056b919061153b565b50600860009054906101000a900473ffffffffffffffffffffffffffffffffffffffff1673ffffffffffffffffffffffffffffffffffffffff1663a9059cbb3384600001516040518363ffffffff1660e01b81526004016105cd9291906114da565b6020604051808303816000875af11580156105ec573d6000803e3d6000fd5b505050506040513d601f19601f82011682018060405250810190610610919061153b565b50816000015183600001546106259190611597565b83600001819055506000600b60003373ffffffffffffffffffffffffffffffffffffffff1673ffffffffffffffffffffffffffffffffffffffff168152602001908152602001600020905080600182805490506106829190611597565b815481106106935761069261143f565b5b90600052602060002090600202018186815481106106b4576106b361143f565b5b906000526020600020906002020160008201548160000155600182015481600101559050508281600183805490506106ec9190611597565b815481106106fd576106fc61143f565b5b9060005260206000209060020201600082015181600001556020820151816001015590505080805480610733576107326115cb565b5b60019003818190600052602060002090600202016000808201600090556001820160009055505090553373ffffffffffffffffffffffffffffffffffffffff167f7fc4727e062e336010f2c282598ef5f14facb3de68cf8195c2f23e1454b2b74e42846040516107a4929190611255565b60405180910390a25050505050565b600760009054906101000a900473ffffffffffffffffffffffffffffffffffffffff1681565b6000806000600960009054906101000a900473ffffffffffffffffffffffffffffffffffffffff16905060008173ffffffffffffffffffffffffffffffffffffffff1663feaf968c6040518163ffffffff1660e01b815260040160a060405180830381865afa158015610850573d6000803e3d6000fd5b505050506040513d601f19601f820116820180604052508101906108749190611687565b50505091505060008273ffffffffffffffffffffffffffffffffffffffff1663313ce5676040518163ffffffff1660e01b8152600401602060405180830381865afa1580156108c7573d6000803e3d6000fd5b505050506040513d601f19601f820116820180604052508101906108eb919061173b565b60ff1690508181945094505050509091565b610905610f8c565b73ffffffffffffffffffffffffffffffffffffffff16610923610c42565b73ffffffffffffffffffffffffffffffffffffffff1614610979576040517f08c379a0000000000000000000000000000000000000000000000000000000008152600401610970906113b3565b60405180910390fd5b6109836000611013565b565b600860009054906101000a900473ffffffffffffffffffffffffffffffffffffffff1673ffffffffffffffffffffffffffffffffffffffff168173ffffffffffffffffffffffffffffffffffffffff1614610a15576040517f08c379a0000000000000000000000000000000000000000000000000000000008152600401610a0c906117b4565b60405180910390fd5b60008211610a58576040517f08c379a0000000000000000000000000000000000000000000000000000000008152600401610a4f90611820565b60405180910390fd5b8073ffffffffffffffffffffffffffffffffffffffff166323b872dd3330856040518463ffffffff1660e01b8152600401610a9593929190611840565b6020604051808303816000875af1158015610ab4573d6000803e3d6000fd5b505050506040513d601f19601f82011682018060405250810190610ad8919061153b565b50600b60003373ffffffffffffffffffffffffffffffffffffffff1673ffffffffffffffffffffffffffffffffffffffff1681526020019081526020016000206040518060400160405280848152602001428152509080600181540180825580915050600190039060005260206000209060020201600090919091909150600082015181600001556020820151816001015550506000600c60003373ffffffffffffffffffffffffffffffffffffffff1673ffffffffffffffffffffffffffffffffffffffff1681526020019081526020016000209050828160000154610bbf9190611877565b81600001819055503373ffffffffffffffffffffffffffffffffffffffff167f1449c6dd7851abc30abf37f57715f492010519147cc2652fbc38202c18a6ee904285604051610c0f929190611255565b60405180910390a2505050565b600860009054906101000a900473ffffffffffffffffffffffffffffffffffffffff1681565b6000600660009054906101000a900473ffffffffffffffffffffffffffffffffffffffff16905090565b600080600c60008473ffffffffffffffffffffffffffffffffffffffff1673ffffffffffffffffffffffffffffffffffffffff16815260200190815260200160002090506000816000015403610cc6576000915050610d02565b600080610cd16107d9565b9150915080600a610ce29190611a00565b828460000154610cf29190611a4b565b610cfc9190611ad4565b93505050505b919050565b610d0f610f8c565b73ffffffffffffffffffffffffffffffffffffffff16610d2d610c42565b73ffffffffffffffffffffffffffffffffffffffff1614610d83576040517f08c379a0000000000000000000000000000000000000000000000000000000008152600401610d7a906113b3565b60405180910390fd5b80600860006101000a81548173ffffffffffffffffffffffffffffffffffffffff021916908373ffffffffffffffffffffffffffffffffffffffff16021790555050565b6000808403610dd95760009050610e29565b60008383610de79190611597565b90506000610e1082610df99190611ad4565b905060008682610e099190611a4b565b905060006103e861ffff1682610e1f9190611ad4565b9050809450505050505b9392505050565b600960009054906101000a900473ffffffffffffffffffffffffffffffffffffffff1681565b610e5e610f8c565b73ffffffffffffffffffffffffffffffffffffffff16610e7c610c42565b73ffffffffffffffffffffffffffffffffffffffff1614610ed2576040517f08c379a0000000000000000000000000000000000000000000000000000000008152600401610ec9906113b3565b60405180910390fd5b600073ffffffffffffffffffffffffffffffffffffffff168173ffffffffffffffffffffffffffffffffffffffff1603610f41576040517f08c379a0000000000000000000000000000000000000000000000000000000008152600401610f3890611b77565b60405180910390fd5b610f4a81611013565b50565b600a8181548110610f5d57600080fd5b906000526020600020016000915054906101000a900473ffffffffffffffffffffffffffffffffffffffff1681565b600033905090565b600080826000015103610faa576000905061100e565b6000610fbf8360000151846020015142610dc7565b9050600080610fcc6107d9565b91509150600081600a610fdf9190611a00565b8385610feb9190611a4b565b610ff59190611ad4565b9050606460ff16816110079190611ad4565b9450505050505b919050565b6000600660009054906101000a900473ffffffffffffffffffffffffffffffffffffffff16905081600660006101000a81548173ffffffffffffffffffffffffffffffffffffffff021916908373ffffffffffffffffffffffffffffffffffffffff1602179055508173ffffffffffffffffffffffffffffffffffffffff168173ffffffffffffffffffffffffffffffffffffffff167f8be0079c531659141344cd1fd0a4f28419497f9722a3daafe3b4186f6b6457e060405160405180910390a35050565b600080fd5b600073ffffffffffffffffffffffffffffffffffffffff82169050919050565b6000611109826110de565b9050919050565b611119816110fe565b811461112457600080fd5b50565b60008135905061113681611110565b92915050565b600060208284031215611152576111516110d9565b5b600061116084828501611127565b91505092915050565b6000819050919050565b61117c81611169565b811461118757600080fd5b50565b60008135905061119981611173565b92915050565b6000602082840312156111b5576111b46110d9565b5b60006111c38482850161118a565b91505092915050565b6000819050919050565b60006111f16111ec6111e7846110de565b6111cc565b6110de565b9050919050565b6000611203826111d6565b9050919050565b6000611215826111f8565b9050919050565b6112258161120a565b82525050565b6000602082019050611240600083018461121c565b92915050565b61124f81611169565b82525050565b600060408201905061126a6000830185611246565b6112776020830184611246565b9392505050565b60008060408385031215611295576112946110d9565b5b60006112a38582860161118a565b92505060206112b485828601611127565b9150509250929050565b6112c7816110fe565b82525050565b60006020820190506112e260008301846112be565b92915050565b60006020820190506112fd6000830184611246565b92915050565b60008060006060848603121561131c5761131b6110d9565b5b600061132a8682870161118a565b935050602061133b8682870161118a565b925050604061134c8682870161118a565b9150509250925092565b600082825260208201905092915050565b7f4f776e61626c653a2063616c6c6572206973206e6f7420746865206f776e6572600082015250565b600061139d602083611356565b91506113a882611367565b602082019050919050565b600060208201905081810360008301526113cc81611390565b9050919050565b7f596f75206e65656420746f207374616b65206669727374000000000000000000600082015250565b6000611409601783611356565b9150611414826113d3565b602082019050919050565b60006020820190508181036000830152611438816113fc565b9050919050565b7f4e487b7100000000000000000000000000000000000000000000000000000000600052603260045260246000fd5b7f53656c6563746564207374616b6520697320696e76616c696400000000000000600082015250565b60006114a4601983611356565b91506114af8261146e565b602082019050919050565b600060208201905081810360008301526114d381611497565b9050919050565b60006040820190506114ef60008301856112be565b6114fc6020830184611246565b9392505050565b60008115159050919050565b61151881611503565b811461152357600080fd5b50565b6000815190506115358161150f565b92915050565b600060208284031215611551576115506110d9565b5b600061155f84828501611526565b91505092915050565b7f4e487b7100000000000000000000000000000000000000000000000000000000600052601160045260246000fd5b60006115a282611169565b91506115ad83611169565b9250828210156115c0576115bf611568565b5b828203905092915050565b7f4e487b7100000000000000000000000000000000000000000000000000000000600052603160045260246000fd5b600069ffffffffffffffffffff82169050919050565b611619816115fa565b811461162457600080fd5b50565b60008151905061163681611610565b92915050565b6000819050919050565b61164f8161163c565b811461165a57600080fd5b50565b60008151905061166c81611646565b92915050565b60008151905061168181611173565b92915050565b600080600080600060a086880312156116a3576116a26110d9565b5b60006116b188828901611627565b95505060206116c28882890161165d565b94505060406116d388828901611672565b93505060606116e488828901611672565b92505060806116f588828901611627565b9150509295509295909350565b600060ff82169050919050565b61171881611702565b811461172357600080fd5b50565b6000815190506117358161170f565b92915050565b600060208284031215611751576117506110d9565b5b600061175f84828501611726565b91505092915050565b7f455243323020546f6b656e206e6f7420616c6c6f776564000000000000000000600082015250565b600061179e601783611356565b91506117a982611768565b602082019050919050565b600060208201905081810360008301526117cd81611791565b9050919050565b7f416d6f756e742063616e6e6f7420626520656d70747900000000000000000000600082015250565b600061180a601683611356565b9150611815826117d4565b602082019050919050565b60006020820190508181036000830152611839816117fd565b9050919050565b600060608201905061185560008301866112be565b61186260208301856112be565b61186f6040830184611246565b949350505050565b600061188282611169565b915061188d83611169565b9250827fffffffffffffffffffffffffffffffffffffffffffffffffffffffffffffffff038211156118c2576118c1611568565b5b828201905092915050565b60008160011c9050919050565b6000808291508390505b600185111561192457808604811115611900576118ff611568565b5b600185161561190f5780820291505b808102905061191d856118cd565b94506118e4565b94509492505050565b60008261193d57600190506119f9565b8161194b57600090506119f9565b8160018114611961576002811461196b5761199a565b60019150506119f9565b60ff84111561197d5761197c611568565b5b8360020a91508482111561199457611993611568565b5b506119f9565b5060208310610133831016604e8410600b84101617156119cf5782820a9050838111156119ca576119c9611568565b5b6119f9565b6119dc84848460016118da565b925090508184048111156119f3576119f2611568565b5b81810290505b9392505050565b6000611a0b82611169565b9150611a1683611169565b9250611a437fffffffffffffffffffffffffffffffffffffffffffffffffffffffffffffffff848461192d565b905092915050565b6000611a5682611169565b9150611a6183611169565b9250817fffffffffffffffffffffffffffffffffffffffffffffffffffffffffffffffff0483118215151615611a9a57611a99611568565b5b828202905092915050565b7f4e487b7100000000000000000000000000000000000000000000000000000000600052601260045260246000fd5b6000611adf82611169565b9150611aea83611169565b925082611afa57611af9611aa5565b5b828204905092915050565b7f4f776e61626c653a206e6577206f776e657220697320746865207a65726f206160008201527f6464726573730000000000000000000000000000000000000000000000000000602082015250565b6000611b61602683611356565b9150611b6c82611b05565b604082019050919050565b60006020820190508181036000830152611b9081611b54565b905091905056fea2646970667358221220eb9549e2f4d74b879699041947b478c3f0f0f64e6cc7c9911593587eb7bd2b2b64736f6c634300080d0033",
  "immutableReferences": {},
  "source": "// SPDX-License-Identifier: MIT\npragma solidity ^0.8.0;\n\nimport \"@chainlink/contracts/src/v0.8/interfaces/AggregatorV3Interface.sol\";\nimport \"@chainlink/contracts/src/v0.8/ChainlinkClient.sol\";\nimport \"@openzeppelin/contracts/token/ERC20/IERC20.sol\";\nimport \"@openzeppelin/contracts/access/Ownable.sol\";\n\n/// @title A staking contract for the ERC-20 FAU token\n/// @author Adrien Guidis\n/// @notice You can use this contract for only the most basic ERC-20 staking simulation\n/// @custom:experimental This is an educational project.\ncontract TokenFarm is ChainlinkClient, Ownable {\n    IERC20 public dappToken;\n\n    /// @notice The reward token DAPP's value is 100$\n    uint8 constant DAPP_PRICE = 100;\n    /// @notice It represents 0.001, since we only use integer numbers. This will give users 0.1% reward for each staked token / H\n    uint16 constant rewardPerHour = 1000;\n\n    /// @notice Only a spcific ERC-20 token is allowed to be staked in this contract\n    address public allowedToken;\n    /// @notice Chainlink price feed to chack the value of our staked token in dollars (DAI/USD)\n    address public priceFeedAddress;\n\n    /// @notice Stores all current stakers addresses\n    address[] public stakers;\n\n    /// @notice This struct will contain the amount staked and a timestamp, the date of staking\n    struct Stake {\n        uint256 amount;\n        uint256 since;\n    }\n    /// @notice This struct will contain the global staking balance and the number of stakes per user\n    struct StakeSummary {\n        uint256 balance;\n        uint256 rewardBalance;\n    }\n    /// @notice stakeHolders is used to keep track of the stakes made by each users\n    mapping(address => Stake[]) internal stakeHolders;\n    /// @notice stakeSummaries is used to aggregate staking information for each users\n    mapping(address => StakeSummary) internal stakeSummaries;\n\n    /// @notice Staked event is triggered whenever a user stakes tokens, address is indexed to make it filterable\n    event Staked(address indexed user, uint256 timestamp, uint256 amount);\n    /// @notice Unstaked event is triggered whenever a user unstakes tokens, address is indexed to make it filterable\n    event Unstaked(\n        address indexed user,\n        uint256 timestamp,\n        uint256 rewardAmount\n    );\n\n    constructor(address _dappTokenAddress) public {\n        dappToken = IERC20(_dappTokenAddress);\n    }\n\n    /// @notice stakeTokens is used to stake a token amount from a user\n    function stake(uint256 amount, address token) public {\n        require(token == allowedToken, \"ERC20 Token not allowed\");\n        require(amount > 0, \"Amount cannot be empty\");\n\n        // We need to approve this transfer because the contract is not the owner of those tokens\n        IERC20(token).transferFrom(msg.sender, address(this), amount);\n\n        // Keep track of each user stakes\n        stakeHolders[msg.sender].push(Stake(amount, block.timestamp));\n\n        // Update user staking summary\n        StakeSummary storage userStakeSummary = stakeSummaries[msg.sender];\n        userStakeSummary.balance = userStakeSummary.balance + amount;\n\n        emit Staked(msg.sender, block.timestamp, amount);\n    }\n\n    /// @notice Used to withdraw a specific stake\n    function withdraw(uint256 stakeIndex) public {\n        // Fetch user stake summary\n        StakeSummary storage userStakeSummary = stakeSummaries[msg.sender];\n        require(userStakeSummary.balance > 0, \"You need to stake first\");\n\n        // Grab the desired Stake with the given index\n        Stake memory selectedStake = stakeHolders[msg.sender][stakeIndex];\n\n        require(selectedStake.amount > 0, \"Selected stake is invalid\");\n\n        // Issue reward\n        uint256 rewardAmount = computeRewardTokenAmount(selectedStake);\n        dappToken.transfer(msg.sender, rewardAmount);\n\n        // Contract is the owner so we don't need approval step\n        IERC20(allowedToken).transfer(msg.sender, selectedStake.amount);\n\n        // Update sender staking information\n        userStakeSummary.balance =\n            userStakeSummary.balance -\n            selectedStake.amount;\n\n        // Finally remove sender from our stakers array\n        Stake[] storage userStakes = stakeHolders[msg.sender];\n\n        userStakes[stakeIndex] = userStakes[userStakes.length - 1]; // overwrite it with the last struct\n        userStakes[userStakes.length - 1] = selectedStake; // overwrite the last struct with the struct we want to delete\n        userStakes.pop(); // remove the last struct (which should be the one we want to delete)\n\n        emit Unstaked(msg.sender, block.timestamp, rewardAmount);\n    }\n\n    /// @notice Returns the staked tokens value in dollars\n    function getStakingBalanceValue(address user)\n        public\n        view\n        returns (uint256)\n    {\n        StakeSummary storage userStakeSummary = stakeSummaries[user];\n        if (userStakeSummary.balance == 0) {\n            return 0;\n        }\n\n        (uint256 price, uint256 decimals) = getTokenDollarValue();\n        return ((userStakeSummary.balance * price) / (10**decimals));\n    }\n\n    /// @notice Returns the current DAI dollar price from Chailink price feed\n    /// @dev The price calcultation is based the pair DAI/USD\n    function getTokenDollarValue() public view returns (uint256, uint256) {\n        AggregatorV3Interface priceFeed = AggregatorV3Interface(\n            priceFeedAddress\n        );\n        (, int256 price, , , ) = priceFeed.latestRoundData();\n        uint256 decimals = uint256(priceFeed.decimals());\n        return (uint256(price), decimals);\n    }\n\n    function setAllowedToken(address token) public onlyOwner {\n        allowedToken = token;\n    }\n\n    function setPriceFeedAddress(address priceFeed) public onlyOwner {\n        priceFeedAddress = priceFeed;\n    }\n\n    /// @notice Compute how much a user should be rewarded for their stake\n    function computeRewardTokenAmount(Stake memory selectedStake)\n        internal\n        view\n        returns (uint256)\n    {\n        if (selectedStake.amount == 0) {\n            return 0;\n        }\n\n        uint256 interest = computeStakeInterest(\n            selectedStake.amount,\n            selectedStake.since,\n            block.timestamp\n        );\n\n        (uint256 price, uint256 decimals) = getTokenDollarValue();\n        uint256 interestValue = ((interest * price) / (10**decimals));\n\n        return interestValue / DAPP_PRICE;\n    }\n\n    /// @notice Compute the stake interest based on the duration of the active stake\n    function computeStakeInterest(\n        uint256 amount,\n        uint256 startTime,\n        uint256 endTime\n    ) public pure returns (uint256) {\n        if (amount == 0) {\n            return 0;\n        }\n\n        // First calculate how long the stake has been active\n        // Use current seconds since epoch - the seconds since epoch the stake was made\n        // The output will be duration in SECONDS ,\n        // We will reward the user 0.1% per Hour So thats 0.1% per 3600 seconds\n        // the alghoritm is  seconds = endTime - start stake time (in seconds)\n        // hours = seconds / 3600 (seconds /3600) 3600 is an variable in Solidity names hours\n        // we then multiply each token by the hours staked , then divide by the rewardPerHour rate\n        uint256 stakePeriodInSeconds = endTime - startTime;\n        uint256 stakePeriodInHours = stakePeriodInSeconds / 3600;\n        uint256 stakerBalanceByHours = stakePeriodInHours * amount;\n        uint256 reward = stakerBalanceByHours / rewardPerHour;\n\n        return reward;\n    }\n}\n",
  "sourcePath": "/Users/adrien/Alyra/staking-dapp/contracts/TokenFarm.sol",
  "compiler": {
    "name": "solc",
    "version": "0.8.13+commit.abaa5c0e.Emscripten.clang"
  },
  "schemaVersion": "3.4.3",
  "updatedAt": "2022-03-17T23:23:26.961Z",
  "devdoc": {
    "author": "Adrien Guidis",
    "custom:experimental": "This is an educational project.",
    "kind": "dev",
    "methods": {
      "getTokenDollarValue()": {
        "details": "The price calcultation is based the pair DAI/USD"
      },
      "owner()": {
        "details": "Returns the address of the current owner."
      },
      "renounceOwnership()": {
        "details": "Leaves the contract without owner. It will not be possible to call `onlyOwner` functions anymore. Can only be called by the current owner. NOTE: Renouncing ownership will leave the contract without an owner, thereby removing any functionality that is only available to the owner."
      },
      "transferOwnership(address)": {
        "details": "Transfers ownership of the contract to a new account (`newOwner`). Can only be called by the current owner."
      }
    },
    "title": "A staking contract for the ERC-20 FAU token",
    "version": 1
  },
  "userdoc": {
    "events": {
      "Staked(address,uint256,uint256)": {
        "notice": "Staked event is triggered whenever a user stakes tokens, address is indexed to make it filterable"
      },
      "Unstaked(address,uint256,uint256)": {
        "notice": "Unstaked event is triggered whenever a user unstakes tokens, address is indexed to make it filterable"
      }
    },
    "kind": "user",
    "methods": {
      "allowedToken()": {
        "notice": "Only a spcific ERC-20 token is allowed to be staked in this contract"
      },
      "computeStakeInterest(uint256,uint256,uint256)": {
        "notice": "Compute the stake interest based on the duration of the active stake"
      },
      "getStakingBalanceValue(address)": {
        "notice": "Returns the staked tokens value in dollars"
      },
      "getTokenDollarValue()": {
        "notice": "Returns the current DAI dollar price from Chailink price feed"
      },
      "priceFeedAddress()": {
        "notice": "Chainlink price feed to chack the value of our staked token in dollars (DAI/USD)"
      },
      "stake(uint256,address)": {
        "notice": "stakeTokens is used to stake a token amount from a user"
      },
      "stakers(uint256)": {
        "notice": "Stores all current stakers addresses"
      },
      "withdraw(uint256)": {
        "notice": "Used to withdraw a specific stake"
      }
    },
    "notice": "You can use this contract for only the most basic ERC-20 staking simulation",
    "version": 1
  }
}